{
  "_format": "hh-sol-artifact-1",
  "contractName": "ExecProof",
  "sourceName": "contracts/ExecProof.sol",
  "abi": [
    {
      "inputs": [
        {
          "internalType": "string",
          "name": "proof",
          "type": "string"
        }
      ],
      "name": "addExecProof",
      "outputs": [],
      "stateMutability": "nonpayable",
      "type": "function"
    },
    {
      "inputs": [],
      "name": "getExecProofs",
      "outputs": [
        {
          "internalType": "string[]",
          "name": "",
          "type": "string[]"
        }
      ],
      "stateMutability": "view",
      "type": "function"
    }
  ],
  "bytecode": "0x608060405234801561001057600080fd5b50610674806100206000396000f3fe608060405234801561001057600080fd5b50600436106100365760003560e01c80630bdaf7181461003b578063961b07c514610057575b600080fd5b610055600480360381019061005091906102dd565b610075565b005b61005f6100f9565b60405161006c9190610403565b60405180910390f35b6000815114156100ba576040517f08c379a00000000000000000000000000000000000000000000000000000000081526004016100b190610425565b60405180910390fd5b6000819080600181540180825580915050600190039060005260206000200160009091909190915090805190602001906100f59291906101d2565b5050565b60606000805480602002602001604051908101604052809291908181526020016000905b828210156101c957838290600052602060002001805461013c90610543565b80601f016020809104026020016040519081016040528092919081815260200182805461016890610543565b80156101b55780601f1061018a576101008083540402835291602001916101b5565b820191906000526020600020905b81548152906001019060200180831161019857829003601f168201915b50505050508152602001906001019061011d565b50505050905090565b8280546101de90610543565b90600052602060002090601f0160209004810192826102005760008555610247565b82601f1061021957805160ff1916838001178555610247565b82800160010185558215610247579182015b8281111561024657825182559160200191906001019061022b565b5b5090506102549190610258565b5090565b5b80821115610271576000816000905550600101610259565b5090565b60006102886102838461046a565b610445565b9050828152602081018484840111156102a057600080fd5b6102ab848285610501565b509392505050565b600082601f8301126102c457600080fd5b81356102d4848260208601610275565b91505092915050565b6000602082840312156102ef57600080fd5b600082013567ffffffffffffffff81111561030957600080fd5b610315848285016102b3565b91505092915050565b600061032a83836103a7565b905092915050565b600061033d826104ab565b61034781856104ce565b9350836020820285016103598561049b565b8060005b858110156103955784840389528151610376858261031e565b9450610381836104c1565b925060208a0199505060018101905061035d565b50829750879550505050505092915050565b60006103b2826104b6565b6103bc81856104df565b93506103cc818560208601610510565b6103d581610604565b840191505092915050565b60006103ed600b836104f0565b91506103f882610615565b602082019050919050565b6000602082019050818103600083015261041d8184610332565b905092915050565b6000602082019050818103600083015261043e816103e0565b9050919050565b600061044f610460565b905061045b8282610575565b919050565b6000604051905090565b600067ffffffffffffffff821115610485576104846105d5565b5b61048e82610604565b9050602081019050919050565b6000819050602082019050919050565b600081519050919050565b600081519050919050565b6000602082019050919050565b600082825260208201905092915050565b600082825260208201905092915050565b600082825260208201905092915050565b82818337600083830152505050565b60005b8381101561052e578082015181840152602081019050610513565b8381111561053d576000848401525b50505050565b6000600282049050600182168061055b57607f821691505b6020821081141561056f5761056e6105a6565b5b50919050565b61057e82610604565b810181811067ffffffffffffffff8211171561059d5761059c6105d5565b5b80604052505050565b7f4e487b7100000000000000000000000000000000000000000000000000000000600052602260045260246000fd5b7f4e487b7100000000000000000000000000000000000000000000000000000000600052604160045260246000fd5b6000601f19601f8301169050919050565b7f4e554c4c20535452494e4700000000000000000000000000000000000000000060008201525056fea2646970667358221220349d84fb74a5954f420a5e299c5138723d0f0b87e56adfaee93f201d8fad85de64736f6c63430008040033",
  "linkReferences": {},
  "deployedLinkReferences": {}
}